:020000041000EA
:1000000000B5324B212058609868022188439860DF
:10001000D860186158612E4B002199600221596106
:100020000121F02299502B49196001219960352056
:1000300000F044F80222904214D00621196600F024
:1000400034F8196E01211966002018661A6600F04E
:100050002CF8196E196E196E052000F02FF8012189
:100060000842F9D1002199601B49196000215960AB
:100070001A491B48016001219960EB211966A021F2
:10008000196600F012F800219960164914480160C1
:100090000121996001BC002800D000471248134993
:1000A000086003C880F30888084703B5996A0420EC
:1000B0000142FBD001200142F8D103BD02B5186610
:1000C0001866FFF7F2FF186E186E02BD00000240BE
:1000D000000000180000070000035F00212200005C
:1000E000F4000018222000A00001001008ED00E03C
:1000F00000000000000000000000000074B24E7A12
:1001000000200420F7010010C3010010C5010010F9
:10011000C1010010C1010010C1010010C101001097
:10012000C1010010C1010010C1010010C701001081
:10013000C1010010C1010010C9010010CB01001065
:10014000CD010010CD010010CD010010CD01001037
:10015000CD010010CD010010CD010010CD01001027
:10016000CD010010CD010010CD010010CD01001017
:10017000CD010010CD010010CD010010CD01001007
:10018000CD010010CD010010CD010010CD010010F7
:10019000CD010010CD010010CD010010CD010010E7
:1001A000CD010010CD010010CD010010CD010010D7
:1001B000CD010010CD010010CD010010CD010010C7
:1001C00000BE00BE00BE00BE00BE00BE00F04BF888
:1001D000103800BEF2EB88713CE405105CE40510B9
:1001E0003402001090A31AE700202149086006C8D5
:1001F00081F3088810471F48006800282FD10DA4FC
:100200000ECC002902D000F012F8F9E71A491B4A77
:10021000002000E001C19142FCD1194988471949E9
:1002200088471949884700BEFDE701C901C29A42C3
:10023000FBD370475CE40510C0000020FC210020C7
:100240009805061000000420000004209805061000
:1002500000100420001004200000000070470B482C
:100260000DF0D8FE0047EFF30580C0B270470000E4
:1002700008ED00E0000000D0002200201C50032008
:10028000D1C300100D030010F9C400105756000030
:1002900006005250ABB360530825051006005250BB
:1002A000861C030218250510060052505422A29DF8
:1002B0002425051005005250DE65F46898050610E7
:1002C000F8B5C04610B5064C2378002B07D1054B76
:1002D000002B02D0044800E000BF0123237010BDB2
:1002E000A82600200000000000200510044B10B5D7
:1002F000002B03D00349044800E000BF10BDC046F6
:1003000000000000AC26002000200510F8B5DE46F5
:10031000454657464E461920E0B50AF0CDFDD0239C
:1003200080221B0692045A620FF07CFB00F09AF8C0
:1003300007F046FA08F01AFF07F0E4FC02F0B6F8FE
:1003400000F08CF9002205242E4B1A7006F056FEA0
:100350002D4D013C210028000FF058FBFA208000B1
:100360000BF018FC002CF4D10A200FF0BBF901228D
:10037000002126480BF07CF8254812F06BF801228A
:10038000244B00271A70244B244C9A46244B254EAC
:100390009946254B254D9846254B9B4601E009F093
:1003A000A5F82378012BFAD00BF0FCFC0EF04AFEE6
:1003B0002049306028680EF0F7FD002810D0534621
:1003C0002F6018680EF04CFE02000B0048460FF03C
:1003D0001DFB0BF0E7FC0EF035FE43461860E0E72E
:1003E0000BF0E0FC0EF02EFE5B46316818600EF05C
:1003F0007CFD114B011C186028680EF079FD286007
:10040000CFE7C04604500320002005106C4F0320A6
:100410009198001003500320543A03200750032002
:1004200014200510443503207C35032004360320B6
:100430004035032000409C450036032010B5064897
:1004400012F030FB0BF0AEFC0EF0FCFD034B18601D
:10045000034B186010BDC046242F03207C4F03209F
:100460007C350320092370B586B0059304330493CB
:10047000023B0393013B0293023B324D324C01930A
:10048000324B22003249334800932B0006F074FAB5
:10049000142006F06DFAFA2080000BF07BFB2E4E44
:1004A00021003200280006F07FFC3378682B08D04A
:1004B0002A4C20000FF066F9FA2080000BF06AFB4E
:1004C000F7E773783D2BF3D101222100280006F0D5
:1004D0008FFC234E32002100280006F0C3FC337845
:1004E000002BF7D101222100280006F03FFB01215B
:1004F000200006F01DFB0321200006F0AFFA0321C7
:10050000280006F0D9FB1321200006F019FD122166
:10051000200006F053FD0021200006F031FD0321EC
:10052000200006F0BBFC0221200006F0D3FC552180
:10053000200006F0B1FA1821280006F057FB06B09B
:1005400070BDC04600160320CC27002040420F009B
:10055000D4150020CC150020EC4F032024200510DA
:1005600019500320F0B5C646334C344D344E2200AA
:100570002900300000B506F029FC6378DB439B07B7
:1005800020D023781B0702D480BCB846F0BD2D4C88
:100590000622002120000EF073FF2100300006F03B
:1005A000E5FB0023E05E06F04FFA274D28600223AA
:1005B000E05E06F049FA68600423E05E06F044FA63
:1005C000A860E1E7214B06229846180000210EF0B2
:1005D00057FF1F4F0622002138000EF051FF414601
:1005E000280006F0A5FB3900280006F083FB4346EF
:1005F0000020185E06F014FA4346164D28600220CB
:10060000185E06F00DFA434668600420185E06F096
:1006100007FAA8600023F85E06F00CFA0E4D286079
:100620000223F85E06F006FA68600423F85E06F01E
:1006300001FAA860A5E7C04680450320CC2700202A
:100640000016032090350320A43A032080350320B0
:1006500088350320103403202C340320F0B5C6461F
:1006600000B50FF0DFF9244924480AF0C1F903214D
:100670001A200AF0F1FB03211B200AF0EDFB0022F7
:1006800001211A200AF000FC002201211B200AF09F
:10069000FBFB1B480BF07EFA1A4C1B4E23781B4DBC
:1006A000DB070ED41A4B012798462100308809F049
:1006B000B3FF4346287018680BF06CFA23781F428A
:1006C000F3D0308809F086FD02212870308809F0C7
:1006D000D7FE14212870308809F00AFE14212870F2
:1006E000308809F073FF2870308809F0D7FD287032
:1006F00080BCB846F0BDC046801A06002016002017
:10070000B80B00001A500320DC150020095003200C
:10071000E0150020F0B55746DE464E464546E0B5AA
:100720008BB008919246190005900993DA170323BC
:100730008C46134063449B109B009846002B00DCC2
:1007400090E05246159B00249B000193149B9B1A3A
:10075000159A9B1A089A9B00029353681268190114
:1007600094460491069251469A00039252468D0097
:100770000021013A92000792002289465900DE00CA
:10078000CB189B009B461300424665440092019A99
:1007900094469C44039B1A199F195346002B1EDD57
:1007A000069B059819196346804600989B004344B0
:1007B00080460094086818600098081A845804312C
:1007C0005C6084599C60C059D86010338D42F1D16F
:1007D00043460799009363468C4604339C440421A6
:1007E000029B5A4463448C461400049A3E00E14440
:1007F0009446009A5E4465444A45C8DC1A00009B52
:100800009846099B434526DD1499159C089B0D1BB2
:10081000514609CB6D1A00291DDD41469E004B4310
:100820009B00C01853469C00059B47469C46099B6D
:10083000AB469846159B994600234A449100614473
:10084000C558CD5004339C42FAD1524401375A4422
:100850008019B845F0D10BB0F0BCBB46B246A946F2
:10086000A046F0BD0022CCE7F0B54746CE4680B5A5
:100870001F00002B1DDD002A1BDD9300C0180B6834
:10088000002498464B689100D200494252428C465F
:1008900091469B00614645182900A2004244166813
:1008A000D21840C18142FAD14A460134A81AA7425F
:1008B000F0D1C0BCB946B046F0BDC046F0B5DE468A
:1008C0004E46574645460023E0B5136083688BB01B
:1008D000049305239B4600235E4609920268029317
:1008E000013B07900691039208930523049C9B1BF0
:1008F0005C439846029BA4009C46039B64449C4630
:10090000644423685D0063686D085F007F08291CEC
:10091000381C0EF051FB002800D1CCE03D1C012713
:10092000731C9A46022B37D9A368291C5B005B080D
:10093000181C99460EF040FB002801D04D460227B6
:100940005346032B28D0E368291C5B005B08181C66
:1009500099460EF031FB002801D04D46032753463F
:10096000042B19D02369281C5B005B08191C9946CD
:100970000EF00CFB002801D04D4604275346062BF1
:100980000AD16469281C64006408211C0EF0FEFA78
:10099000002801D00527251C069B029A4744002108
:1009A0009F50281C0EF0EAFA002800D185E0089B31
:1009B000013300D1FEE0062347469B1B9C46079A65
:1009C00005939268574367440492BF000599049BBE
:1009D0000C009A005C43029B00929C46039BA5007E
:1009E0001A0065448C4691469B46924690463B1DB4
:1009F0006444A400994404335D445C449A44BB4479
:100A000004331037944698443B0000276344019315
:100A10005B46296818680EF082FA011C20680EF007
:100A200064FA2060012E2DD94B46286819680EF013
:100A300076FA011C60680EF058FA6060022E21D030
:100A40005346286819680EF06AFA011CA0680EF077
:100A50004CFAA060032E15D04346286819680EF0A2
:100A60005EFA011CE0680EF040FAE060052E09D144
:100A7000019B296818680EF052FA011C20690EF0DB
:100A800034FA2061009B01379C4665446444BE42B1
:100A9000BED1029B013E04330293059B052B00D07F
:100AA00023E71A00069B5A610BB0F0BCBB46B24666
:100AB000A946A046F0BD002732E7474530D003994C
:100AC00002988C46BF0067448446079A3C68926847
:100AD0000B5892000C5061443B608918BB180868A1
:100AE0001C680C60186089189B1808681C680C60EA
:100AF000186089189B1808681C680C6018608918B1
:100B00009B1808681C680C60186089189B18186886
:100B10000A6808601A60099A136800930133136029
:100B20004746079B039A9B685F4304930623991BE0
:100B300043468C46FB189B0067449C58BF00D51960
:100B400028680591211C0EF0D6F92860012E00D8E6
:100B50003CE7039B3D1D9C4665442868211C0EF024
:100B6000CAF92860022E00D130E7039B3D009C4665
:100B7000083565442868211C0EF0BDF92860032E55
:100B800000D123E7039B3D009C460C356544286853
:100B9000211C0EF0B0F92860042E00D116E7039A4C
:100BA0003D009446103565442868211C0EF0A3F9D9
:100BB00028600BE7062347469B1B9C46059343464C
:100BC000079A08939268574367440492BF00FDE672
:100BD000F0B55746DE464E464546E0B599B014930B
:100BE000249B8246259C26985D1C00D1229B651C77
:100BF00000D1229C239DEE1703253540239EB44649
:100C00006544AD10AF000725229E0E97AE43350018
:100C10000096149E002E00DC88E29B0016932301B0
:100C200010930301D31817936B1EDB080133039154
:100C3000D9015B010F93A3007C432018800011931E
:100C4000131815930023D346139108930E9B002B82
:100C500000DCC2E10F9A039B944663441293179BF6
:100C6000D8460193002302930298434601000CCB1F
:100C7000089C5943A4466144890051180991411CBC
:100C800059436144890051180A91811C59436144B8
:100C9000890051180B91C11C4B4363449B00D3182E
:100CA000019E0C93009B3400002B00DC45E2039B6B
:100CB0000025994600234C46AA46AB46A946069510
:100CC00004952F1C059507950D9325683168281C00
:100CD0000EF025F959460EF00BF971688346281C71
:100CE0000EF01DF951460EF003F9B1688246281C3A
:100CF0000EF015F907990EF0FBF8F1680790281C23
:100D00000EF00DF905990EF0F3F80590656831695C
:100D1000281C0EF004F9391C0EF0EAF87169071C62
:100D2000281C0EF0FCF804990EF0E2F8B16904906A
:100D3000281C0EF0F4F806990EF0DAF8F169069026
:100D4000281C0EF0ECF849460EF0D2F88146A56852
:100D5000316A281C0EF0E3F859460EF0C9F8716AA2
:100D60008346281C0EF0DBF851460EF0C1F8B16A3C
:100D70008246281C0EF0D3F807990EF0B9F8F16AF4
:100D80000790281C0EF0CBF805990EF0B1F80590ED
:100D9000E568316B281C0EF0C2F8391C0EF0A8F87B
:100DA000716B071C281C0EF0BAF804990EF0A0F81D
:100DB000B16B0490281C0EF0B2F806990EF098F86A
:100DC000F16B0690281C0EF0AAF849460EF090F838
:100DD00081462569316C281C0EF0A1F859460EF0A9
:100DE00087F8716C8346281C0EF099F851460EF076
:100DF0007FF8B16C8246281C0EF091F807990EF02E
:100E000077F8F16C0790281C0EF089F805990EF020
:100E10006FF805906569316D281C0EF080F8391C5B
:100E20000EF066F8716D071C281C0EF078F8049916
:100E30000EF05EF8B16D0490281C0EF070F8069963
:100E40000EF056F8F16D0690281C0EF068F8494631
:100E50000EF04EF88146A569316E281C0EF05FF841
:100E600059460EF045F8716E8346281C0EF057F86F
:100E700051460EF03DF8B16E8246281C0EF04FF838
:100E800007990EF035F8F16E0790281C0EF047F820
:100E900005990EF02DF80590E569316F281C0EF0CC
:100EA0003EF8391C0EF024F8716F071C281C0EF058
:100EB00036F804990EF01CF8B16F0490281C0EF05F
:100EC0002EF806990EF014F8F16F0690281C0EF01B
:100ED00026F849460EF00CF88146803620340D9BEA
:100EE000009A08330D939A4200DDEEE6139B019CB5
:100EF0009C46051C5946381C64440DF0F9FF5146C8
:100F0000071C04980DF0F4FF0799061C06980DF0D5
:100F1000EFFF05998146281C0DF0EAFF129B051C86
:100F20009A46229A009B9A4230DDAB460493534680
:100F300020CB2168281C9A460DF0F1FF011C381CBB
:100F40000DF0D6FF6168071C281C0DF0E8FF011C9E
:100F5000301C0DF0CDFFA168061C281C0DF0DFFF32
:100F6000011C48460DF0C4FFE1688146281C0DF0C5
:100F7000D6FF011C58460DF0BBFF8346049B229A06
:100F80000133103404939A42D1D1051C311C0A9EBE
:100F900030680DF0AAFF391C099F041C38680DF059
:100FA000A4FF291C0C9D3860346028680DF09DFF5B
:100FB0000B9E4946041C30680DF097FF1099019A6A
:100FC0008C46029B624401920E9A04333060029375
:100FD0002C609A4200DD47E6C3460F9A039B944675
:100FE00063440E9A0293239B9246159D934200DC24
:100FF00090E05B465C6853465C43089B2F009C4630
:101000005B461B6864449C46009BA4006444002B20
:1010100000DC99E00023039F99463B00A046002690
:101020002F001C00396820680DF079FF311C0DF08D
:101030005FFF061C796860680DF071FF311C0DF0D0
:1010400057FF061CB968A0680DF069FF311C0DF050
:101050004FFF061CF968E0680DF061FF311C0DF0D0
:1010600047FF061C396920690DF059FF311C0DF04E
:101070003FFF061C796960690DF051FF311C0DF0CE
:1010800037FF061CB969A0690DF049FF311C0DF04E
:101090002FFF061CF969E0690DF041FF311C0DF0CE
:1010A00027FF061C2037203408239C46009BE14480
:1010B0004B45B7DC44460F9BEF18029B0193229AE5
:1010C000009B9A4217DD99460023984643464246C4
:1010D000F958019B98580DF022FF011C301C0DF0AF
:1010E00007FF061C01239C460333E1449C46229BD8
:1010F000E0444B45EAD12068311C0DF0F6FE012397
:101100009C46119BE2449C46239B206065445345CA
:1011100000D06EE71699039A8C46089B62440392AE
:10112000149A013308939A4200D08FE519B0F0BCAD
:10113000BB46B246A946A046F0BD0025039BA94682
:101140009A462E1C2F1CECE6039B00260193B6E763
:10115000F0B55746DE464E4645469C24E0B5BDB048
:1011600006AF3C19FB63842320609824BA6694225E
:101170005B003C19FB1821601C68BA182369FB67E7
:10118000A3681360834202DD9423FB181860942344
:101190009821FB187918FA6F1B680D685343554363
:1011A0002268002A00D1DBE29B007B668C23FB18BF
:1011B0001A6090220023BA1813606368AA003A6686
:1011C000002B00D1ECE28822BB670023BA18136021
:1011D000C84D2B78BFF35B8FDB0700D4FDE2C64C14
:1011E000A4220423BA1813609433FB181B686068A8
:1011F000002B18DD9C237A1DFB18FF321B68126838
:101200001900934200DAFFE209010CF05DFF0323AD
:10121000C2171340A4221B189B109B00BA1813601E
:10122000042B00DAEBE29C23FB181C68002C00DC8A
:1012300072E2FB6BFD6F18006A425043F8611800C0
:101240008021661B7043F866180001335A439200F0
:101250007918BA61621E0E601100594389008846F0
:10126000B96E1B018C46E04441467964A9004942AD
:101270003961A1007C1CFF3424685B42A446A4248D
:1012800061443964791DFF313C1909682468FB60A9
:101290006143B962B02183005B4279180B6003009F
:1012A000921B5043DB43AC229B00BA181360C4224C
:1012B0007B1DFF331B68BA189B0078611360A02266
:1012C000FB6FBA1813609C22BA181268934202DDB1
:1012D000A023FB181A609823FB181B68002B00DC66
:1012E0009FE1A023FB181A68002A00DC99E19823EB
:1012F000FB181B68396C3B65A423FB181B68534320
:101300009B00FB62BB6FFB649300CB1A79697B6225
:101310008C46FB6EB82163447B63002379180B6015
:10132000D021BB643B679C33FB181B6879189B1A60
:10133000BB60130079600321013B043A8B43D31A4D
:101340003B63A422BA183B6D1268FB65934200DD33
:10135000FA65B822BA181268FB6D9446C822634435
:10136000BA1813609C237A6AFB1894461B6884227F
:101370007B673B6FBA189B0063443B627B6B7B656A
:101380007B6CBB65A023FB181B6813608423B4220D
:10139000FB181B68BA181360042B03DDB422042366
:1013A000BA1813608423FB181B68002B00DCA5E02F
:1013B000B422C820B824BA187B6F116838183C19B9
:1013C000006824685A1ABA63A04200DC9CE0944684
:1013D0004E1EB96E9B008A46043B9B467B6D791C72
:1013E00063449B00FF3109689A44BB6C63448C469C
:1013F000A8219B00634479180B609300C0225B42D4
:10140000BA181360BC22BB6DBA181360BC23FE204F
:10141000FB181B68800519680DF06DFDCC23FB18C7
:101420001860A823FB181C68B823FB181B68B1467A
:101430001E00C023FB181B685A469846A04443462A
:101440009958CC23FB1818680DF069FD43465A469D
:1014500098504B46051C002B22DD534619680DF0B1
:101460005EFD011C20680DF040FD4B462060012B05
:1014700016D05346281C59680DF051FD011C6068B8
:101480000DF033FD4B466060022B09D05346281CFB
:1014900099680DF044FD011CA0680DF026FDA060C8
:1014A000C423FB181B6801369C46C823FB181B6825
:1014B00064449E42BDD1AC22BC23BA181268FB180A
:1014C0009446BC221B68BA18634413600423B022FC
:1014D0005B429C46BA181268E3449446B4224E46D6
:1014E000BA181268731EE244961BB2420CDD1E004D
:1014F0008CE7C04674190320342F0320B422BA1895
:101500007B6F12689B1ABB638423B422BD6BBA182D
:10151000AC46FB1810681B687A1CFF3212681C1A54
:101520003B6F7968634494469B0063440B607B1D6A
:10153000FF331B6880464B60A0230194FB181E6894
:1015400002000096FB6DF86C9B4689468246FFF7C9
:10155000E1F8002C2ADD2B00BA6849469446FD6B61
:10156000BA6E6B438C20634494464D604D469B009D
:101570003818006863440B60424623008146FFF739
:1015800073F929007B1DFF333D6A1B680D604B60BA
:101590000D005B460396464601935246230049469A
:1015A0002800049402960096FFF712FB84238422FD
:1015B000F968FB188C46B0211B68BA18043B13600D
:1015C0007A6F7918043A09687A67BA6D62448C4672
:1015D000BA657A6D62447A653A6B934200D0D5E67B
:1015E000A422B823BA181268B8219446FB181B68C5
:1015F000791863440B60396D8A1AF96A3A658C462A
:10160000FA6CB96A62448C46FA643A6F62443A678B
:10161000BA6C6244BA649822BA1812689A4200DD21
:101620008FE680239C22FB181B68BA181360002BDE
:1016300072DD9423FB181B68002B00DCFEE780237F
:10164000BA6EFB1892461D68FB6E00249B009A44FC
:10165000D023FE1800239B46013B99469423FB1898
:101660001B68A8469D4200DD9846CC22A300BA180C
:101670001360FA6B8C207260A0225344BA18381899
:1016800031001268006833604346FFF7EDF87A1CBA
:10169000CC23FF321268FB1894461B688C216344EC
:1016A00033607B1DFF331B68791873605B460493BE
:1016B0004B46039302939823FB181B683000019359
:1016C000A023FB181B680093BA6F43460968FFF715
:1016D0007FFA9423FB181B689C46ED1A8023FB18A5
:1016E0001B686444A342B9DCFA69FB6E9446BA698C
:1016F00063449446FB663A697B6C634494467B641E
:101700003B6CFA6F63443B648023FB181B689B1A95
:101710008022BA181360D2E580233A6E9B029A4267
:1017200008D98823FB181B68002B03D0043B1868DA
:101730000DF08EFE80237A6E9B029A4208D9902388
:10174000FB181B68002B03D0043B18680DF080FECB
:10175000BD4637B0F0BCBB46B246A946A046F0BD78
:101760009A0080237A669B029A424FD813006A46F9
:101770001633DB08DB00D31A9D4627200F2368446D
:1017800098438133FB18186090238C22FB181B6848
:10179000BA1813606368AA003A66002B00D012E5FD
:1017A00080239B029A424FD813006A461633DB0807
:1017B000DB00D31A9D4627200F23684498437933D2
:1017C000FB1818608823FB181B682D4DBB672B780E
:1017D000BFF35B8FDB0700D501E5280010F060FE4A
:1017E000284C002800D1FBE48023DB012360802308
:1017F0001B0328006360A36010F06EFEF0E4A422D7
:101800000423BA1813600EE51100FDE41000103037
:101810000DF0E0FD9023FB18021E1860B4D00F23DA
:10182000010099430B0010218C468C209C4461469A
:10183000DA602368381801605842584190234042CA
:101840000140FB181960B8E4100010300DF0C2FD23
:101850008823FB1818600028B4D00F230100994397
:101860000B0010218C46D86060689C44434258416C
:10187000614688234042B967FB1801401960A7E41C
:1018800074190320342F0320F0B55746DE464E4628
:101890004546E0B5B3B006AF8C24BB62E023FA62E4
:1018A00088223C19FB1821601C68BA1823697865E6
:1018B00013608422A368BA181360834202DD842374
:1018C000FB181860842388228C21FB18BA18791819
:1018D00012681B680D68534355432268002A00D1E3
:1018E00050E29B00FA6780223B650023BA18136020
:1018F0006368AA00FA64002B00D161E2FB66002352
:10190000BB67E74D2B78BFF35B8FDB0700D470E23A
:10191000E44C90220423BA1813608833FB181B6828
:101920006068002B16DDDC22BA187B6D1268190086
:10193000934200DA74E209010CF0C6FB0323C217DC
:10194000134090221B189B109B00BA181360042BA5
:1019500000DA60E27B6D002B00DCF1E18822B96ADD
:10196000BA1808001268BB6350439B1AB8609820ED
:101970007B634B1C99001B01FB61DC234A43381835
:1019800001607A609020DC22FB181B68BA189B006B
:101990009B46FB6A38183B63002312680068BB65EE
:1019A00042437A610A1F3A627B679422BB6BBA1882
:1019B00013608822BA181268934202DD9423FB1840
:1019C0001A608C23FB181B68002B00DC45E1942374
:1019D000FB181A68002A00DC3FE18C239021FB18D9
:1019E0001B687918BB6413000968DA464B43D82199
:1019F000791809689B008C463B61FB6E9C21FB6556
:101A00007B6F79189B006344FB6000230B60A82167
:101A10003B667918130039600321013B043A8B437C
:101A2000D31ABB619022BA18BB6C1268BB66934292
:101A300000DDBA669C22BA181268BB6E9446FA683A
:101A4000634494469B463B6E9B006344FB633B6B45
:101A50003B647B6F7B66BB6D7B649423FB181B68C8
:101A60003B679423FB181A683B6FD21A7A62A02254
:101A7000BA181360042B03DDA0220423BA181360E4
:101A80003B6F002B58DD9C23FB181B689B4553DDE7
:101A9000A023A422FB181B68BA18013B9946FB6BD4
:101AA00013603B6C98464B46002B2EDDA423FB189D
:101AB0001C689C23FB181E68434625685968281C2F
:101AC0000DF02DFA011C60680DF00FFA4B466060B6
:101AD000012B16D04346281C99680DF020FA011CF2
:101AE000A0680DF002FA4B46A060022B09D04346D5
:101AF000281CD9680DF013FA011CE0680DF0F5F907
:101B0000E060013654445E45D6D14B465A1E9823B8
:101B1000FB181B68A4219C46A423FB181B6879189A
:101B200004330B60A023FB1819684B46E044CB1A22
:101B3000994201DD9146B6E7A022BA181468D8226E
:101B40003B6F796E3E6E8C461D1B3300BA181068D1
:101B50006344844639689B0063440B60DC23FB18B4
:101B60001B6822004B607B6A884601939423FB1814
:101B700018680090BB6EF86DFEF7CCFD002D36DDC9
:101B80007B6E41469C46786C220064440319F86AD7
:101B90009B008446B86A63444860A02038180260FD
:101BA000F86F0B602B00C1468046FEF75DFED82221
:101BB000BA18331914689B00A4464C46634423604A
:101BC000DC23FB1819687B6A616004939423FB187B
:101BD0001E68A0230396FB181A6841460292BB6E4A
:101BE0000092019348462B00FA6DFEF7F1FF396A27
:101BF0007A6C8C46F96962448C467A647A6E3B6FE3
:101C000004327A663A6C043B62443A64FA6B3B678E
:101C10001032FA63BA69934200D022E790229C23E3
:101C2000BA1812689C219446FB181B687918634403
:101C30000B60B96C8A1A7969BA648C463A6E396954
:101C400062448C463A66FA6D6244FA658C22BA1890
:101C500012689A4200DDE5E6D3468822BA18126877
:101C60007B6F94467A6D63447B67934268DA842382
:101C7000FB181B68002B17DC8823B968FB188C46FF
:101C8000BA6B1B68D21ABA63BA6D6244BA657A6BD2
:101C9000D31A7A687B6394463B6B63443B6384E668
:101CA00074190320342F0320FA6ABB6D92469B00FF
:101CB0009A44A823FE18A93B99467D6B7C6F842328
:101CC000FB181B68A8469D4200DD9846A422A3008D
:101CD000BA181360BA6A534472609422BA18310079
:101CE0001268F86F33604346FEF7BEFDD822A42386
:101CF000BA181268FB1894461B68300063443360BE
:101D0000DC23FB181B687360002304934B4603938A
:101D100002938C23FB181B6801939423FB181B6808
:101D20000093FA6E4346F96FFEF752FF8423FB18C7
:101D30001B689C46ED1A7B6D6444A342BFDC9BE7A5
:101D40008023FA6C9B029A4206D9BB6F002B03D00A
:101D5000043B18680DF07CFB80233A6D9B029A428D
:101D600008D98023FB181B68002B03D0043B18689C
:101D70000DF06EFBBD462DB0F0BCBB46B246A94689
:101D8000A046F0BD9A0080233A659B029A4249D84A
:101D900013006A461633DB08DB00D31A9D46272062
:101DA0000F23684498437133FB1818608023FB1895
:101DB0001B68AA00FB676368FA64002B00D09DE5EE
:101DC00080239B029A4249D813006A461633DB08E7
:101DD000DB00D31A9D4627200F2368449843B86739
:101DE000BB6F2A4DFB662B78BFF35B8FDB0700D5FB
:101DF0008EE5280010F054FB254C002800D188E522
:101E00008023DB01236080231B0328006360A36021
:101E100010F062FB7DE590220423BA18136099E567
:101E2000110088E5100010300DF0D4FA8023FB1863
:101E300018600028BAD00F23010099430B0010212D
:101E40008C46D8609C4423686146584258418023A0
:101E50004042F967FB180140196049E51000103055
:101E60000DF0B8FAB8670028BAD00F2301009943E3
:101E70000B0010218C46D86060689C444342584156
:101E800061464042F9660140B9673AE5741903209A
:101E9000342F032030B587B00D4B02AD00951A6882
:101EA000694602929A880400AA809B796A46AB71BF
:101EB000072301930023D3732DF084FA0098A842DE
:101EC00003D0029901310DF0F7FA200007B030BDC0
:101ED00038200510F0B5DE4657464E464546FE4BC7
:101EE000E0B51860FD4B8DB01B68079298464446DC
:101EF000FB4B0A911C60F94C099064685C60F94BDB
:101F0000A1469B465C465D461F686668F64BA46822
:101F1000ED681F605E609C60DD60F44B04941B689C
:101F200006951A1CF24B05921A60F24B1B68191C9D
:101F3000F14B08911960F14B1C6898685D68DB688B
:101F40000290211C4046039301950CF0E8FF029992
:101F5000051C48460CF0E3FF011C281C0CF0C8FFD0
:101F6000E74D8246296807980CF0D9FF011C5046BE
:101F70000CF0BEFFE34A019910600B904046924678
:101F80000CF0CDFF0399804648460CF0C8FF011CB9
:101F900040460CF0ADFF6968804607980CF0BFFF23
:101FA000011C40460CF0A4FF524607905060211CD3
:101FB000381C0CF0B4FF029A051C111C301C914611
:101FC0000CF0ADFF011C281C0CF092FF019980461B
:101FD000381C0CF0A4FF039A051C111C301C9246FF
:101FE0000CF09DFF011C281C0CF082FF211C071C1B
:101FF00004980CF094FF4946051C06980CF08FFFDE
:10200000011C281C0CF074FF4E460199814604986F
:102010000CF085FF5146051C06980CF080FF011C52
:10202000281C0CF065FF41468246201C0CF077FF0F
:102030004946051C301C0CF072FF011C281C0CF0DA
:1020400057FFB14E31680CF053FFB04D049028603B
:10205000391C201C0CF063FF5146041C02980CF044
:102060005EFF011C201C0CF043FF71680CF040FF68
:1020700041460290686001980CF051FF039A49466E
:10208000041C101C90460CF04AFF011C201C0CF094
:102090002FFFB1680CF02CFF391C0390A860019849
:1020A0000CF03DFF5146041C40460CF038FF011C6B
:1020B000201C0CF01DFFF1680CF01AFF944CE86036
:1020C0002568061C291C04980CF029FF6468071C6D
:1020D000211C301C01960CF022FF029E8146211C1F
:1020E000301C0CF01CFF391C0CF002FF291C0CF0FA
:1020F00016FF039AB246291C061C101C90460CF0D1
:102100000EFF49460CF0F4FE211C0CF008FF011CE8
:10211000301C0CF0EDFE7F4B19680CF0E9FE7E4B95
:10212000061C1860211C40460CF0F9FE391C0CF00E
:10213000DFFE311C0CF0DFFE784A071C9046106071
:10214000291C50460CF0EBFE49460CF0D1FE311C28
:102150000CF0D1FE42460B9B5060061C291C181C3B
:102160009A460CF0DCFE079B8046211C181C994601
:102170000CF0D5FE011C40460CF0BAFE011C09987B
:102180000CF0B3FE391C80460CF0C9FE51460CF031
:10219000AFFE524A06901060311C40460CF0BFFE64
:1021A00049460CF0A5FE4D4B804658605C4B291CFF
:1021B0009A46381C0CF0B3FE5346011C18680CF00C
:1021C00094FE291C8146301C0CF0A9FE5546011CCA
:1021D00068680CF08AFE211C051C381C0CF09FFE60
:1021E0005746011CB8680CF080FE211C071C301CEF
:1021F0000CF095FE5446011CE0680CF076FE494652
:10220000041C04980CF08BFE029B061C391C181C45
:102210009A460CF084FE011C301C0CF069FE5E46F0
:10222000291C306004980CF07AFE211C061C5046D4
:102230000CF075FE011C301C0CF05AFE5E46039A31
:1022400049467060101C91460CF069FE019B061C0B
:10225000391C181C9A460CF062FE011C301C0CF054
:1022600047FE5F46291CB86048460CF058FE211C0A
:10227000051C50460CF053FE011C281C0CF038FEC7
:102280000A99F86040460CF030FE264B051C1748B2
:102290001C680560291C05980CF02AFE211C0CF016
:1022A0003EFE214B061C1868011C0CF021FE011C8F
:1022B000301C0CF020FE1D4E31680CF019FE1C4B3A
:1022C000071C30601868011C0CF012FE194B061C2C
:1022D0001A68111C92462FE0F04F0320744403202B
:1022E0006C3A0320302300205023002024360320A2
:1022F000643A032028360320683A03206023002034
:1023000074350320884403209022002040230020BD
:102310009444032048170320603A0320D827002064
:1023200070230020F8150020E4150020583A0320FF
:10233000F4150020E82700200CF0F1FD8146011C77
:10234000201C0CF0D5FD8046211C48460CF0CDFD2C
:102350004A4A116893460CF0E2FD41460CF0CBFD71
:102360005146814650460CF0C3FD05998246281C13
:102370000CF0BBFD011C50460CF0D1FD41460CF0A9
:10238000BAFD011C48460CF0B3FD5A468046106069
:10239000391C281C0CF0ACFD41460CF0A9FD384B53
:1023A00019680CF0BCFD374B06991860364B186065
:1023B0000CF09BFD354A089B1060051C011C181C85
:1023C0009B460CF095FD211C0CF0A9FD304B071C21
:1023D0001868011C0CF08CFD011C381C0CF08BFDE6
:1023E0002C4B994619680CF083FD4B4618602A4B1C
:1023F000071C1B68301C191C99460CF090FD824686
:10240000011C201C0CF074FD4946061C48460CF0CB
:102410006FFD59468146281C0CF067FD011C48469B
:102420000CF07DFD311C0CF066FD211C81465046F0
:102430000CF05BFD41460CF072FD311C0CF05BFDB5
:10244000011C48460CF054FD144B041C1860391C48
:10245000281C0CF04DFD211C0CF04AFD104B196896
:102460000CF05DFD0F4B18600F4B18600DB0F0BC09
:10247000BB46B246A946A046F0BDC046083603207A
:10248000EC150020C44F0320C04F03202836032042
:10249000E81500205C3A0320EC2700200C360320CE
:1024A000F0150020C84F0320CC4F0320F8B5FE25BF
:1024B0000024194BAD051D60DD609C605C60174B0E
:1024C000174F1D60DD609C605C60164B1E68164BEC
:1024D000301C19680CF00FFD144B38601D605C60F7
:1024E000DD609C60124B7C601D605E60DD609C6006
:1024F000104B1C605D60104B1868011C0CF00FFD48
:102500000E4B0F4A186012680E4B1A600E4A9C6000
:1025100012685C60DA60F8BD3023002040230020A0
:1025200074350320F8150020FC15002070230020CE
:10253000602300209444032008160020481703203D
:10254000301703209022002028170320F0B5DE4624
:1025500057464E464546E0B50E000168C7688946B5
:10256000416805698A4681688DB08B4641698069FA
:102570000793069050681368926805910A90291C89
:1025800030680B92099308950CF0AFFC0599039005
:1025900070680CF0AAFC0699051CB0680CF0A5FC4C
:1025A00080268046360607980CF05AFDB446039BF9
:1025B000009001916344180051460CF0B0FC59465C
:1025C000061C281C0CF0ABFC011C301C0CF08DFC14
:1025D000391C061C404604970CF0A1FC011C301C61
:1025E0000CF083FC0CF03CFD0022684B0BF0DFFF8D
:1025F000009A019B0BF0DBFF060048460F000CF031
:102600002FFD02000B0030003900169C0BF0A8FFD4
:102610000CF0C6F84946206003980CF080FC59463F
:10262000061C40460CF07BFC011C301C0CF060FCCE
:102630000499061C281C0CF072FC011C301C0CF0C8
:1026400054FC0CF00DFD0022504B0BF0B0FF009A33
:10265000019B0BF0ACFF060050460F000CF000FD94
:1026600002000B00300039000BF07AFF0CF098F8F4
:1026700049466060281C0CF052FC5146061C40463E
:102680000CF04DFC011C301C0CF02FFC0499061CB6
:1026900003980CF044FC011C301C0CF029FC0CF0DD
:1026A000DFFC0022394B0BF082FF009A019B0BF0FC
:1026B0007EFF060058460F000CF0D2FC02000B0013
:1026C000300039000BF04CFF0CF06AF84946A0606E
:1026D00040460CF024FC5146061C281C0CF01FFC44
:1026E000011C301C0CF004FC5946051C03980CF02E
:1026F00016FC011C281C0CF0F8FB0CF0B1FC0022AD
:10270000224B0BF054FF009A019B0BF050FF060088
:1027100004980F000CF0A4FC02000B0030003900FC
:102720000BF01EFF0CF03CF8089B0999E060181CA8
:1027300098460CF0F4FB079D291C0CF0F0FB011CE3
:1027400040460CF0D2FB059F0A992061381C0CF022
:10275000E6FB291C0CF0E3FB011C381C0CF0C5FB4C
:10276000069E0B996061301C0CF0D9FB291C0CF003
:10277000D6FB011C301C0CF0B8FBA06100200DB092
:10278000F0BCBB46B246A946A046F0BD0000E03F03
:10279000F0B5DE4657464E4645468A464168E0B5A6
:1027A0008846C768816891B0066889464046391CEA
:1027B000141C04930CF0B3FB4946051C301C0CF0B0
:1027C000AEFB0A90011C281C09950CF08EFB0CF046
:1027D00047FC02000B000BF0C3FE06900791201C83
:1027E00002940CF03DFC0B00020004000D00069862
:1027F00007990BF0DCFE0BF0D3FF5246391C10603A
:1028000048460CF08CFB83464146301C0CF087FB9D
:102810005A460E90011C58460B920CF069FB0CF0C6
:102820001FFC02000B000BF09BFE02000B002000BF
:1028300029000C920D930BF0BAFE0BF0B1FF544639
:10284000311C6060301C0CF06AFB4146041C4046A1
:102850000CF065FB051C011C201C0CF046FB4946D6
:10286000089048460CF05BFB391C8346381C0CF082
:1028700056FB5946019008980CF037FB01990CF073
:1028800037FB02990F900CF04AFB5346494698607B
:1028900040460CF044FB391C8046301C0CF03FFBDA
:1028A00081461A980CF0DCFB06001B980F000CF018
:1028B000D7FB02900391291C201C0CF019FB5946F0
:1028C0000CF013FB01990CF010FB04990CF027FBA2
:1028D0000CF0C6FB04000D00404649460CF008FB16
:1028E0000CF0BEFB02000B000BF03AFE32003B0086
:1028F0000BF05DFE02000B00200029000BF030FE03
:10290000029A039B04000D00069807990BF04FFEF6
:1029100002000B00200029000BF022FE0BF040FF0C
:102920005346D86004980CF09BFB04000D00404611
:1029300049460CF0DAFA0CF093FB02000B000BF0A6
:102940000FFE22002B00049405950BF030FE0400CE
:102950000D00089859460CF0CBFA01990CF0C5FA15
:102960001A990CF0DCFA0CF07BFB02000B00200043
:1029700029000BF0F5FD029A039B04000D000C9852
:102980000D990BF014FE02000B00200029000BF043
:10299000E7FD0BF005FF53460A99186109980CF002
:1029A000A7FA0CF05DFB02000B000BF0D9FD049AB6
:1029B000059B0BF0FCFD04000D000B980E990CF02C
:1029C00094FA0CF04DFB02000B000BF0C9FD320035
:1029D0003B000BF0ECFD02000B00200029000BF087
:1029E000BFFD04000D000F981B990CF098FA0CF035
:1029F00037FB02000B00200029000BF0B1FD0BF0AB
:102A0000CFFE53465861002011B0F0BCBB46B24621
:102A1000A946A046F0BDC046F0B50400DE465746C4
:102A20004E4645460800E0B545680968AA468568EF
:102A300095B0AB46C5684669876910910E950169E6
:102A4000556810689268049690461A680697119225
:102A50005A689B6812921393FE239B052360994644
:102A60000CF043FA0CF0FCFA009001911E980CF067
:102A7000F7FA06000F00009801990022924B0BF024
:102A800096FD32003B000BF092FD0BF089FE04999D
:102A90000390E061281C0CF028FA0CF0E1FA002207
:102AA000894B049005910BF082FD32003B000BF046
:102AB0007EFD0BF075FE0699051CA06340460CF0E8
:102AC00014FA0CF0CDFA00227F4B069007910BF020
:102AD0006EFD32003B000BF06AFD0BF061FE0A90C8
:102AE000606550460CF0BCFA0022784B08900991C2
:102AF0000BF05DFD32003B000BF059FD0BF050FE7A
:102B00000B90206758460CF0ABFA00226F4B0C90EC
:102B10000D910BF04CFD32003B000BF048FD0BF02B
:102B20003FFE8C238246E0500E980CF099FA00226A
:102B3000664B0E900F910BF03AFD32003B000BF00C
:102B400036FD0BF02DFEA8238346E05000220098AE
:102B500001995E4B0BF02BFD32003B000BF027FD83
:102B60000BF01EFE4946009060602162002206982C
:102B70000799564B0BF01BFD32003B000BF017FD85
:102B80000BF00EFEA5658046E06310980CF068FA25
:102B900000224D4B0BF00BFD32003B000BF007FD0C
:102BA0000BF0FEFD59469023051C60670022E150A2
:102BB0000C980D99444B0BF0FAFC32003B000BF0E3
:102BC000F6FC0BF0EDFDAC230022E05004980599D3
:102BD0003E4B0BF0ECFC32003B000BF0E8FC0BF042
:102BE000DFFD49460A9A83466262009AA06021642A
:102BF000E2650E980F990022334B0BF0D8FC32009F
:102C00003B000BF0D4FC0BF0CBFD94230B99A06799
:102C1000E5501C33E1504146E1605946A162494606
:102C200021665146039BE167636408980999002275
:102C3000254B0BF0BCFC32003B000BF0B8FC0BF05A
:102C4000AFFD9823E0501C33E55000251E991198E4
:102C50002561E562A56465660CF061F9011C4846D2
:102C60000CF043F98023E0501C33E5501C33E55051
:102C7000343B1E99129865612563E564A566E550AD
:102C80000CF04DF9011C48460CF02FF9A023E05040
:102C90001C33E550343BA56165632565E566E55069
:102CA0001C33E5501E9913980CF039F9011C484665
:102CB0000CF01BF9C023E050002015B0F0BCBB465F
:102CC000B246A946A046F0BD0000E0BF0000E03FCC
:102CD000F0B5DE4657464E464546E0B59A460B6887
:102CE000141C8A689B464B68C9688BB00500101C91
:102CF0008846009301920CF0B3F902900391201CD6
:102D00000CF0AEF9C02306000F00029803990022D0
:102D10001B060BF04CFC32003B000BF048FC0BF0A8
:102D20003FFD0890286040460CF09AF902000B0025
:102D30000BF016FC32003B000BF039FC0BF030FDC1
:102D4000041CA86158460CF08BF9C02300221B0616
:102D5000049005910BF02BFC32003B000BF027FC9C
:102D60000BF01EFD286300980CF07AF902000B00AE
:102D7000069007910BF0F4FB32003B000BF017FCC0
:102D80000BF00EFD002190238946A8642966A967EF
:102D9000E95068600498059902000B000BF0E0FB15
:102DA00032003B000BF003FC0BF0FAFC6C63049068
:102DB000E8610298039902000B000BF0D1FB32008E
:102DC0003B000BF0F4FB0BF0EBFC49469423E8646A
:102DD0006966E967E950C02306980799049A1B06BB
:102DE000AA6000220BF0E3FB32003B000BF0DFFB9C
:102DF0000BF0D6FC089B4946AB63802328622C6508
:102E0000A966E9501833E950404614990CF087F848
:102E1000019F1599061C381C0CF081F85146041CC2
:102E200058460CF07CF8311C0CF062F8211C06941A
:102E30000CF05BF8011C0CF05BF851460990E8605F
:102E400000980CF06CF81499041C381C0CF067F80E
:102E5000011C201C0CF04CF81599041C40460CF089
:102E60005EF8011C201C0CF043F8011C0CF040F82B
:102E700014990290686200980CF051F81599089026
:102E800058460CF04CF8019A802494462406644479
:102E9000071C514620000CF042F808990CF028F865
:102EA000391C0CF022F8011C0CF022F81499E8638C
:102EB00058460CF034F81599049000980CF02FF84F
:102EC000802212064244041C514610000CF027F8E0
:102ED00004990CF00DF8211C0CF00AF8011C0CF000
:102EE00007F84A468423EA666865EA501833EA50D0
:102EF0005146286101980CF012F808990BF0F5FF83
:102F0000391C0BF0F5FF011C0BF0F2FF071CA86247
:102F10008020029B00062B64514658440BF0FFFFB3
:102F2000311C0BF0E2FF06990BF0E2FF011C0BF0E5
:102F3000DFFF8823A86548462867E8501833E85023
:102F4000514640466F610BF0EAFF04990BF0CDFF4C
:102F5000211C0BF0CAFF011C0BF0CAFF099AE862A2
:102F60006A64029B4A46EB654B466B678C230020E4
:102F7000EA501833EA500BB0F0BCBB46B246A94643
:102F8000A046F0BD0123F0B5E3214746CE469C465E
:102F9000294B804605009946284E80B58900076870
:102FA00046444144FA0F6F68D2077B005B083468DF
:102FB00013435A08624064461C4201D04B465A40B3
:102FC00004C50436A942EDD1E32342469B00C62640
:102FD000D458194B01259C46F6004644E20F4C6834
:102FE000D20763005B08076813435A087A401D4202
:102FF00001D063465A40043004C1B042EED142468B
:10300000C62140460E4BC900D3581268DB0F520050
:103010005208DB07415813435A084A40DB0701D5E1
:10302000054B5A404146064BCA5000220433CA5051
:10303000C0BCB946B046F0BDDFB008993406000008
:10304000BC090000F0B54546DE4657464E46E0B5A1
:103050003B4CD723A54434AA944663441B091B0167
:103060008A6805930B68019237921A680490069259
:103070009A69339107921A6B38AC08929A6C09924C
:103080001A6E0B929A6F0C9290229A580D925A686F
:103090000E92DA690F925A6B1092DA6C11925A6E94
:1030A0001292DA6F139294229A5814929A68159297
:1030B0001A6A16929A6B17921A6D18929A6E199252
:1030C00080229A581A9298229A581B92DA681C9277
:1030D0005A6A1D92DA6B1E925A6D1F92DA6E209216
:1030E00084229A5821929C229A5822921A692392F9
:1030F0009A6A24921A6C25929A6D26921A6F2792D8
:1031000088229A582892A0229A5829925A692A927B
:10311000DA6A2B925A6C2C92DA6D2D925A6F2E929B
:103120008C229A582F92A4229B5830934B68984631
:1031300038AB3293C423454643440A9302E0C04669
:103140009CFDFFFFEA68A96991462A69AB68904631
:103150006A69099803914946019302920BF0DFFED8
:10316000414682460B980BF0DAFE011C50460BF0EC
:10317000BFFE029982460C980BF0D1FE039983465C
:103180000D980BF0CCFE011C58460BF0B1FE011C53
:1031900050460BF0ADFE6F688246391C07980BF065
:1031A000BEFE0199834608980BF0B9FE011C5846F3
:1031B0000BF09EFE2E688346311C06980BF0AFFE86
:1031C000011C58460BF094FE011C50460BF090FE7B
:1031D0004946206011980BF0A2FE414682461298A3
:1031E0000BF09DFE011C50460BF082FE02998246B8
:1031F00013980BF094FE0399834614980BF08FFEFE
:10320000011C58460BF074FE011C50460BF070FE7A
:10321000391C82460F980BF082FE01998346109864
:103220000BF07DFE011C58460BF062FE311C8346FC
:103230000E980BF074FE011C58460BF059FE011C51
:1032400050460BF055FE4946606018980BF067FE3B
:103250004146824619980BF062FE011C50460BF065
:1032600047FE029982461A980BF059FE039983464D
:103270001B980BF054FE011C58460BF039FE011C44
:1032800050460BF035FE391C824616980BF047FE6F
:103290000199834617980BF042FE011C58460BF02B
:1032A00027FE311C834615980BF039FE011C584649
:1032B0000BF01EFE011C50460BF01AFE4946A060A2
:1032C0001F980BF02CFE4146824620980BF027FEFB
:1032D000011C50460BF00CFE0299824621980BF01F
:1032E0001EFE0399834622980BF019FE011C5846D6
:1032F0000BF0FEFD011C50460BF0FAFD391C824616
:103300001D980BF00CFE019983461E980BF007FEEA
:10331000011C58460BF0ECFD311C83461C980BF049
:10332000FEFD011C58460BF0E3FD011C50460BF05E
:10333000DFFD4946E06026980BF0F1FD41468246EC
:1033400027980BF0ECFD011C50460BF0D1FD0299C3
:10335000824628980BF0E3FD0399834629980BF0E9
:10336000DEFD011C58460BF0C3FD011C50460BF05E
:10337000BFFD391C824624980BF0D1FD019983468C
:1033800025980BF0CCFD011C58460BF0B1FD311C0B
:10339000834623980BF0C3FD011C58460BF0A8FD93
:1033A000011C50460BF0A4FD2D99206148460BF0FE
:1033B000B6FD2E99814640460BF0B1FD011C4846F2
:1033C0000BF096FD2F99804602980BF0A8FD3099DE
:1033D000814603980BF0A3FD011C48460BF088FDC5
:1033E000011C40460BF084FD391C80462B980BF0E5
:1033F00096FD2C99071C01980BF091FD011C381CBF
:103400000BF076FD311C071C2A980BF088FD011C7F
:10341000381C0BF06DFD011C40460BF069FD0A9B4A
:103420001C3560611834AB4200D08BE6379B1A68BC
:10343000629308929A6909921A6B0A929A6C0B929B
:103440001A6E0C929A6F0D9290229A580E925A68A8
:103450000F92DA6910925A6B1192DA6C12925A6ECC
:103460001392DA6F149294229A5815929A681692CF
:103470001A6A17929A6B18921A6D19929A6E1A928A
:1034800080229A581B9298229A581C92DA681D92B0
:103490005A6A1E92DA6B1F925A6D2092DA6E21924E
:1034A00084229A5822929C229A5823921A69249232
:1034B0009A6A25921A6C26929A6D059C27921A6F29
:1034C0002034289288229A58A1462992A0229A58FC
:1034D0002A925A692B92DA6A2C925A6C2D92DA6DE2
:1034E0002E925A6F2F928C229A583092A4229B5877
:1034F00031935CAB06933EAB0793329B98464346B1
:103500004246414640461B6895690193069B146BF1
:10351000096E926C40CB876F0291101C0B9903923D
:1035200006930BF0FCFC0C99824602980BF0F7FC1A
:10353000011C50460BF0DCFC0D998246381C0BF048
:10354000EEFC0E998346301C0BF0E9FC011C58463A
:103550000BF0CEFC011C50460BF0CAFC09998246C8
:10356000281C0BF0DCFC0A998346201C0BF0D7FCCE
:10357000011C58460BF0BCFC0899834601980BF0DF
:10358000CEFC011C58460BF0B3FC011C50460BF05E
:10359000AFFC4B461299186003980BF0C0FC1399CE
:1035A000824602980BF0BBFC011C50460BF0A0FCBD
:1035B00014998246381C0BF0B2FC15998346301CD6
:1035C0000BF0ADFC011C58460BF092FC011C504660
:1035D0000BF08EFC10998246281C0BF0A0FC119970
:1035E0008346201C0BF09BFC011C58460BF080FC12
:1035F0000F99834601980BF092FC011C58460BF082
:1036000077FC011C50460BF073FC4B46199958602F
:1036100003980BF084FC1A99824602980BF07FFC09
:10362000011C50460BF064FC1B998246381C0BF0C1
:1036300076FC1C998346301C0BF071FC011C58462B
:103640000BF056FC011C50460BF052FC17998246B9
:10365000281C0BF064FC18998346201C0BF05FFCBF
:10366000011C58460BF044FC1699834601980BF058
:1036700056FC011C58460BF03BFC011C50460BF05D
:1036800037FC4B462099986003980BF048FC219931
:10369000824602980BF043FC011C50460BF028FCBC
:1036A00022998246381C0BF03AFC23998346301C41
:1036B0000BF035FC011C58460BF01AFC011C50465F
:1036C0000BF016FC1E998246281C0BF028FC1F9953
:1036D0008346201C0BF023FC011C58460BF008FC11
:1036E0001D99834601980BF01AFC011C58460BF0FB
:1036F000FFFB011C50460BF0FBFB4B462799D860A3
:1037000003980BF00CFC2899824602980BF007FCFA
:10371000011C50460BF0ECFB29998246381C0BF03B
:10372000FEFB2A998346301C0BF0F9FB011C58461E
:103730000BF0DEFB011C50460BF0DAFB25998246AC
:10374000281C0BF0ECFB26998346201C0BF0E7FBB2
:10375000011C58460BF0CCFB2499834601980BF0D2
:10376000DEFB011C58460BF0C3FB011C50460BF05E
:10377000BFFB4B462E99186103980BF0D0FB2F9995
:10378000824602980BF0CBFB011C50460BF0B0FBBD
:1037900030998246381C0BF0C2FB3199071C301C53
:1037A0000BF0BDFB011C381C0BF0A2FB011C5046AA
:1037B0000BF09EFB2C99061C281C0BF0B0FB2D99DE
:1037C000051C201C0BF0ABFB011C281C0BF090FB14
:1037D0002B99041C01980BF0A2FB011C201C0BF080
:1037E00087FB011C301C0BF083FB4B465861042304
:1037F0009C461433E0449C46079BE144984500D026
:103800007DE6339B059DDC68296A20680BF070FB20
:10381000049EA96B306060680BF06AFB7060A06862
:10382000296D0BF065FBB060E068A96E0BF060FBE2
:103830008023F0602069E95898460BF059FB9823E3
:103840003061E95860690BF053FB7061A069696AE7
:103850000BF04EFBB061E069E96B0BF049FBF061E6
:10386000206A696D0BF044FB3062E96E606A0BF010
:103870003FFB84277062A06AE9590BF039FB9C2357
:10388000B062E958E06A0BF033FBF062206BA96A82
:103890000BF02EFB3063606B296C0BF029FB70631F
:1038A000A06BA96D0BF024FBB063E06B296F0BF0EC
:1038B0001FFBF0638826206CA9590BF019FB049BB1
:1038C0001864A023606CE9580BF012FB049BE96AB2
:1038D0005864A06C0BF00CFB049B696C9864E06C62
:1038E0000BF006FB049BE96DD864206D0BF000FB28
:1038F000049B696F1865606D0BF0FAFA8C25049AC9
:10390000059B5065A06D59590BF0F2FAA423049A57
:103910009065059AE06DD1580BF0EAFA049B059A80
:10392000D865116B206E0BF0E3FA049B059A1866BC
:10393000916C606E0BF0DCFA049B059A5866A06EE1
:10394000116E0BF0D5FA049B059A9866E06E916FA4
:103950000BF0CEFA049B059AD8669023206FD158BD
:103960000BF0C6FA049B059A1867A823606FD1581C
:103970000BF0BEFA049B059A5867A16F506B0BF0D1
:10398000B7FA049B059A9867E16FD06C0BF0B0FA18
:103990004146049B059AD8676158506E0BF0A8FA0F
:1039A0004146049B059A5850E159D06F0BF0A0FA9C
:1039B000049BD8519423059FA159F8580BF098FA0D
:1039C000049B9851AC236159F8580BF091FA049B71
:1039D000585199239B009D44F0BCBB46B246A94672
:1039E000A046F0BDF0B5DE4657464E4645460400BB
:1039F000E0B5036987B05800636940085900490879
:103A00000BF076FAE368590049080BF071FA636825
:103A1000051C5800A3684008590049080BF068FAD3
:103A20002368590049080BF063FA011C281C0BF0AD
:103A30005FFAA36A051C5800E36A40085900490868
:103A40000BF056FA636A590049080BF051FAE36922
:103A5000061C5800236A4008590049080BF048FA30
:103A6000A369590049080BF043FA011C301C0BF004
:103A70003FFA236C071C5800636C40085900490842
:103A80000BF036FAE36B590049080BF031FA636B1F
:103A9000061C5800A36B4008590049080BF028FA8F
:103AA000236B590049080BF023FA011C301C0BF062
:103AB0001FFA061C011C381C0BF068FA002800D104
:103AC0003E1C311C281C0BF061FA002800D12E1C72
:103AD000A36D5800E36D4008590049080BF008FA3F
:103AE000636D590049080BF003FAE36C051C58009C
:103AF000236D4008590049080BF0FAF9A36C5900EE
:103B000049080BF0F5F9011C281C0BF0F1F9236FA3
:103B1000071C5800636F4008590049080BF0E8F98A
:103B2000E36E590049080BF0E3F9636E051C580079
:103B3000A36E4008590049080BF0DAF9236E5900CA
:103B400049080BF0D5F9011C281C0BF0D1F988238A
:103B50008046E0580433E1584000490049084008D5
:103B60000BF0C6F98423E158490049080BF0C0F96D
:103B7000E36F051C58008023E158400849004908BC
:103B80000BF0B6F9A36F590049080BF0B1F9011C0D
:103B9000281C0BF0ADF9051C011C40460BF0F6F992
:103BA000002800D14546291C381C0BF0EFF90028ED
:103BB00000D13D1C291C301C0BF0E8F9002800D175
:103BC000351CC0232100E55001AABA3B02A8A83148
:103BD00004930294FCF772FE0121C422019B9826F3
:103BE0000B405B428B430133A354343A924600228C
:103BF00050469C2722509432A1509346923AA251AB
:103C00000132E2519D32944660469C3A2250A032E5
:103C100091469F3A90464A4640462300A050484667
:103C20001832A258903392009A18156825504046D1
:103C300010606046B8222058A25880466046920024
:103C40009A181568255040461060B422E059A258D1
:103C5000844692009A1810685D46E05160461060F4
:103C6000B022A258A75992009A181068A051176064
:103C7000AC225846A258265892009A1810686051F3
:103C80001660A822A258554692009B185246186802
:103C9000A25860511A60C523E15407B0F0BCBB467E
:103CA000B246A946A046F0BDC023002210B5C250BE
:103CB00000220433C2520B68040003604B68436067
:103CC0008B688360CB68C3600B6903614B69436198
:103CD0008B698361CB69C3610B6A03624B6A436280
:103CE0008B6A8362CB6AC3620B6B03634B6B436368
:103CF0008B6B8363CB6BC3630B6C03644B6C436450
:103D00008B6C8364CB6CC3640B6D03654B6D436537
:103D10008B6D8365CB6DC3650B6E03664B6E43661F
:103D20008B6E8366CB6EC3660B6F03674B6F436707
:103D30008B6F8367CB6FC3678023CA58C25004332D
:103D4000CA58C2500433CA58C2500433CA58C25069
:103D5000FFF748FE200010BDF0B5DE464E46454652
:103D60005746E0B5214C9146A5443AAA94460A002C
:103D700031931F4B3B9063441B091B013A919846BA
:103D8000D3AB13CA13C313CA13C31268D3A91A60DF
:103D9000184B194A1B6847A80493184B47AC1B687B
:103DA0000193174B1B6805930093049BFEF790FF4C
:103DB00047ABD3934B46D49347ABD5933AAA8323CF
:103DC000944686201B0163441B68C0004044A2AA9D
:103DD000D3A9D6930990FFF735F96BAB0893434607
:103DE0000A934B463094A1461C000BE014F7FFFFEA
:103DF00047030000FC1503200AE81C41F4150320CA
:103E0000F81503204B464E461B68B76F0493089B7A
:103E1000494640CB48464A460893A823896C006E21
:103E20009569126B06910790E158301C05920BF0D2
:103E300076F88C238246E158381C0BF070F8011C90
:103E400050460BF055F8216F824607980BF067F843
:103E5000616D834606980BF062F8011C58460BF022
:103E600047F8011C50460BF043F8A16B82460598B9
:103E70000BF055F8E1698346281C0BF050F8011C43
:103E800058460BF035F82168834604980BF047F844
:103E9000011C58460BF02CF8011C50460BF028F87A
:103EA00043461860AC23301CE1580BF038F89023DF
:103EB0008246E158381C0BF032F8011C50460BF0DA
:103EC00017F8616F824607980BF029F8A16D8346B9
:103ED00006980BF024F8011C58460BF009F8011C59
:103EE00050460BF005F8E16B824605980BF017F889
:103EF000216A8346281C0BF012F8011C58460AF070
:103F0000F7FF6168834604980BF009F8011C5846D6
:103F10000AF0EEFF011C50460AF0EAFF43465860E3
:103F2000B023301CE1580AF0FAFF94238246E1588E
:103F3000381C0AF0F4FF011C50460AF0D9FFA16FAB
:103F4000824607980AF0EBFFE16D834606980AF077
:103F5000E6FF011C58460AF0CBFF011C50460AF050
:103F6000C7FF216C824605980AF0D9FF616A834633
:103F7000281C0AF0D4FF011C58460AF0B9FFA168BA
:103F8000834604980AF0CBFF011C58460AF0B0FFA4
:103F9000011C50460AF0ACFF43469860B423301C25
:103FA000E1580AF0BCFF98238246E158381C0AF019
:103FB000B6FF011C50460AF09BFFE16F824607984E
:103FC0000AF0ADFF216E834606980AF0A8FF011C97
:103FD00058460AF08DFF011C50460AF089FF616CBB
:103FE000824605980AF09BFFA16A8346281C0AF0C6
:103FF00096FF011C58460AF07BFFE168834604984F
:104000000AF08DFF011C58460AF072FF011C504651
:104010000AF06EFF4346D860B823301CE1580AF01E
:104020007EFF9C238246E158381C0AF078FF011C71
:1040300050460AF05DFF80238246E15807980AF057
:104040006EFF616E834606980AF069FF011C5846B0
:104050000AF04EFF011C50460AF04AFFA16C82464E
:1040600005980AF05CFFE16A8346281C0AF057FFB6
:10407000011C58460AF03CFF2169834604980AF067
:104080004EFF011C58460AF033FF011C50460AF04F
:104090002FFF43461861BC23301CE1580AF03FFF54
:1040A000A0238246E158381C0AF039FF011C504613
:1040B0000AF01EFF84238246E15807980AF02FFF7A
:1040C000A16E834606980AF02AFF011C58460AF0A2
:1040D0000FFF011C50460AF00BFFE16C8246059869
:1040E0000AF01DFF216B8346281C0AF018FF011CF3
:1040F00058460AF0FDFE6169834604980AF00FFFF6
:10410000011C58460AF0F4FE011C50460AF0F0FE6D
:104110004346E16E586106980AF001FF8823824603
:10412000E15807980AF0FBFE011C50460AF0E0FE39
:10413000A4238246E158381C0AF0F1FEC023071C74
:10414000E158301C0AF0EBFE011C381C0AF0D0FECE
:10415000011C50460AF0CCFE616B061C281C0AF0BC
:10416000DEFE216D051C05980AF0D9FE011C281CF5
:104170000AF0BEFEA169051C04980AF0D0FE011CDD
:10418000281C0AF0B5FE011C301C0AF0B1FE4346A3
:10419000986104239C461833E1449C464DABE044AF
:1041A0004B4500D02EE60A9BA146D8249846A4276A
:1041B000A4004444BF00474420000999FFF774FD60
:1041C000210090223800C8240BF060F9FC21A400E3
:1041D000444489004144182220000BF057F9CE20B6
:1041E00081218000C9004144182240440BF04EF95F
:1041F0008422D423D200424412689B0043441A60B4
:10420000D523874A4546424412889B004344FE21F9
:104210001A8000232268B0359200AA18890511601F
:1042200093611363936413669367C92292004244B7
:10423000126844469200AA18136091611363936454
:1042400013669367CA2292004244126806269200BF
:10425000AA18136093611163936413669367CB226A
:1042600092004244126806209200AA1813609361DB
:104270001363916413669367CC22920042441268E0
:104280009200AA1813609361136393641166936795
:10429000CD229200424412689200AA1813609361E2
:1042A000136393641366A8235B009B4691674246A1
:1042B0005946E41820334344A660E6602661535013
:1042C0008022920042444B396260924604933A0045
:1042D00006230294FF3901960095FDF7D5FA424670
:1042E0005946049BA660E6602661535053464B39FD
:1042F00063603A0006230294062001960095FF3978
:10430000FCF726FF43461B688C2207934346DB6974
:10431000D3AC089343469B6B099343465B6D0A936A
:1043200043461B6F0B9343469B5804320C93434602
:104330005B68179343461B6A18934346DB6B0D93E8
:1043400043469B6D0E9343465B6F0F9343469B58CA
:104350000432109343469B68119343465B6A129361
:1043600043461B6C13934346DB6D149343469B6F8C
:10437000159343469B58043216934346DB681993C2
:1043800043469B6A069343465B6C1A9343461B6EF7
:104390001B934346DB6F1C9343469B58183A1D936F
:1043A00043461B691E934346DB6A1F9343469B6C3F
:1043B000209343465B6E219343469B581C322293C5
:1043C00043469B58183A239343465B6924934346DC
:1043D0001B6B25934346DB6C269343469B6E2793CA
:1043E00043469B581C32289343469B58183A2993BE
:1043F00043469B692A9343465B6B2B9343461B6D55
:104400002C934346DB6E2D9343469B581C322E93D0
:1044100043469B58A8462F934B46329302E0C04632
:104420002404000043461F685B68424699464346A1
:1044300041469B68D2680E694D69089849460493C5
:1044400005920AF06CFD0499824609980AF067FD0E
:10445000011C50460AF04CFD391C824607980AF0B0
:104460005EFD011C50460AF043FD311C82460B984C
:104470000AF055FD291C83460C980AF050FD011CDA
:1044800058460AF035FD059983460A980AF047FD1B
:10449000011C58460AF02CFD011C50460AF028FD6C
:1044A0004946206018980AF03AFD049982460D9812
:1044B0000AF035FD011C50460AF01AFD391C8246EF
:1044C00017980AF02CFD011C50460AF011FD311C12
:1044D00082460F980AF023FD291C834610980AF0A3
:1044E0001EFD011C58460AF003FD059983460E98EF
:1044F0000AF015FD011C58460AF0FAFC011C504652
:104500000AF0F6FC4946606012980AF008FD04992A
:10451000824613980AF003FD011C50460AF0E8FC9D
:10452000391C824611980AF0FAFC011C50460AF028
:10453000DFFC311C824615980AF0F1FC291C8346E9
:1045400016980AF0ECFC011C58460AF0D1FC0599BB
:10455000834614980AF0E3FC011C58460AF0C8FC94
:10456000011C50460AF0C4FC4946A06006980AF0B7
:10457000D6FC049982461A980AF0D1FC011C5046D8
:104580000AF0B6FC391C824619980AF0C8FC011CD6
:1045900050460AF0ADFC311C82461C980AF0BFFC64
:1045A000291C83461D980AF0BAFC011C58460AF0E3
:1045B0009FFC059983461B980AF0B1FC011C5846E4
:1045C0000AF096FC011C50460AF092FC4946E06055
:1045D0001F980AF0A4FC0499824620980AF09FFCD8
:1045E000011C50460AF084FC391C82461E980AF0D1
:1045F00096FC011C50460AF07BFC311C8246229836
:104600000AF08DFC291C834623980AF088FC011CC3
:1046100058460AF06DFC0599834621980AF07FFC04
:10462000011C58460AF064FC011C50460AF060FC6C
:104630004946206125980AF072FC04998246269822
:104640000AF06DFC011C50460AF052FC391C8246EF
:1046500024980AF064FC011C50460AF049FC311C05
:10466000824628980AF05BFC291C834629980AF0A8
:1046700056FC011C58460AF03BFC059983462798D6
:104680000AF04DFC011C58460AF032FC011C504651
:104690000AF02EFC494660612B980AF040FC049910
:1046A00081462C980AF03BFC011C48460AF020FC8D
:1046B000391C81462A980AF032FC011C48460AF04F
:1046C00017FC311C071C2E980AF029FC291C061C1B
:1046D0002F980AF024FC011C301C0AF009FC0599F3
:1046E000051C2D980AF01BFC011C281C0AF000FC7C
:1046F000011C381C0AF0FCFB18239C46A061FDAB92
:104700001C34E044A34200D08CE6329BD49A9946F4
:10471000D39BD599D69CD79DD89ED99F06930792B7
:10472000DA9BDB9A08910994DC99DD9C0A950B963B
:10473000DE9DDF9E0C970D93E09FE19B0E92E29A27
:104740000F91109411951296139714931592E39963
:10475000E49CE59DE69EE79FE89BE99A16911794F5
:10476000EA99EB9C18951996EC9DED9E1A971B9370
:10477000EE9FEF9B1C921D91F09AF1991E94F29C72
:104780002096219722932392249125941F95F39D9F
:10479000F49EF59FF79AF69BF899F99C2695279633
:1047A000FA9DFB9E2897FC9F2A923A9A29932B9177
:1047B0002C942D952E962F97D3AB32CA32C332CA82
:1047C00032C31168D3AC1960FD49FE4B09681B6800
:1047D0000191FD49FD4A09682000009141A9FDF7BA
:1047E000D7FF319F419938680AF07FFB4299834691
:1047F00078680AF07AFB43998246B8680AF075FB3C
:104800004499041CF8680AF070FB4599051C386946
:104810000AF06BFB4699061C78690AF066FB071CD8
:10482000011C2A980AF07BFB311C804623980AF071
:1048300076FB011C40460AF05BFB291C80461C9855
:104840000AF06DFB011C40460AF052FB211C804619
:1048500015980AF064FB514604900E980AF05FFB2D
:10486000011C04980AF044FB5946049007980AF08A
:1048700056FB011C04980AF03BFB011C40460AF061
:1048800037FB3A9A51680AF033FB391C04902B9895
:104890000AF045FB311C804624980AF040FB011CBD
:1048A00040460AF025FB291C80461D980AF037FB7C
:1048B000011C40460AF01CFB211C804616980AF099
:1048C0002EFB514605900F980AF029FB011C059814
:1048D0000AF00EFB5946059008980AF020FB011CCF
:1048E00005980AF005FB011C40460AF001FB3A9AC4
:1048F00091680AF0FDFA391C05902C980AF00FFB1C
:10490000311C804625980AF00AFB011C40460AF03B
:10491000EFFA291C80461E980AF001FB011C404654
:104920000AF0E6FA211C804617980AF0F8FA514678
:10493000319010980AF0F3FA011C31980AF0D8FA75
:104940005946319009980AF0EAFA011C31980AF0A8
:10495000CFFA011C40460AF0CBFA3A9AD1680AF025
:10496000C7FA391C31902D980AF0D9FA311C8046CB
:1049700026980AF0D4FA011C40460AF0B9FA291C1C
:1049800080461F980AF0CBFA011C40460AF0B0FAA4
:10499000211C804618980AF0C2FA514632901198AC
:1049A0000AF0BDFA011C32980AF0A2FA5946329078
:1049B0000A980AF0B4FA011C32980AF099FA011C1C
:1049C00040460AF095FA3A9A11690AF091FA391CB0
:1049D00032902E980AF0A3FA311C804627980AF0EC
:1049E0009EFA011C40460AF083FA291C8046209852
:1049F0000AF095FA011C40460AF07AFA211C80461A
:104A000019980AF08CFA5146339012980AF087FAF6
:104A1000011C33980AF06CFA594633900B980AF04F
:104A20007EFA011C33980AF063FA011C40460AF032
:104A30005FFA3A9A51690AF05BFA5146339013983B
:104A40000AF06DFA211C80461A980AF068FA011CD7
:104A500040460AF04DFA594680460C980AF05FFA33
:104A6000011C40460AF044FA311C804628980AF09E
:104A700056FA391C34902F980AF051FA011C3498D8
:104A80000AF036FA291C349021980AF048FA011CE1
:104A900034980AF02DFA011C40460AF029FA3A9A95
:104AA00091690AF025FA391C804629980AF037FAEC
:104AB000311C071C22980AF032FA011C381C0AF03B
:104AC00017FA291C061C1B980AF029FA011C301C35
:104AD0000AF00EFA211C051C14980AF020FA51461F
:104AE000041C0D980AF01BFA011C201C0AF000FAA5
:104AF0005946041C06980AF012FA011C201C0AF000
:104B0000F7F9011C281C0AF0F3F93A9AD3AC1168A2
:104B10000AF0EEF93B9B049A18605A60059A9A6075
:104B2000319ADA60329A1A61339A5A6142469A612E
:104B30004B461B684A46A2934B465B68A3934B4681
:104B40009B68A4934B46DB68A5934B461B69A693D1
:104B50004B465B69A7934B469B69A8934B46DB6921
:104B6000A9934B461B6AAA934B465B6AAB934B4691
:104B70009B6AAC934B46DB6AAD934B461B6BAE9383
:104B80004B465B6BAF934B469B6BB0934B46DB6BDB
:104B9000B1934B461B6CB2934B465B6CB3934B4645
:104BA0009B6CB4934B46DB6CB5934B461B6DB69335
:104BB0004B465B6DB7934B469B6DB8934B4607E0F6
:104BC000F4150320FC150320F81503200AE81C4106
:104BD000DB6DB9934B461B6EBA934B465B6EBB9332
:104BE0004B469B6EBC934B46DB6EBD934B461B6F97
:104BF000BE934B465B6FBF934B469B6FC0934B4638
:104C0000DB6FC1938023D358C2938423D358C393BB
:104C10008823D358C4938C23D358C5939023D35857
:104C2000C6939423D358C7939823D358C8939C23EF
:104C3000D358C993A023D358CA93A423D358CB9352
:104C4000A823D358CC93AC23D358CD93B023D358B7
:104C5000CE93B423D358CF93B823D358D093BC2347
:104C6000D358D193C023D358D293309B30929846D7
:104C700043461F685B6842469946434641469B68E7
:104C8000D2680E694D690D984946049305920AF061
:104C900046F90499824614980AF041F9011C5046DD
:104CA0000AF026F9391C824606980AF038F9011CE8
:104CB00050460AF01DF9311C824622980AF02FF95D
:104CC000291C834629980AF02AF9011C58460AF043
:104CD0000FF9059983461B980AF021F9011C5846E3
:104CE0000AF006F9011C50460AF002F94946206014
:104CF0000E980AF014F90499824615980AF00FF9F3
:104D0000011C50460AF0F4F8391C824607980AF054
:104D100006F9011C50460AF0EBF8311C8246239834
:104D20000AF0FDF8291C83462A980AF0F8F8011CBD
:104D300058460AF0DDF8059983461C980AF0EFF80A
:104D4000011C58460AF0D4F8011C50460AF0D0F86D
:104D5000494660600F980AF0E2F804998246169876
:104D60000AF0DDF8011C50460AF0C2F8391C8246F0
:104D700008980AF0D4F8011C50460AF0B9F8311C22
:104D8000824624980AF0CBF8291C83462B980AF017
:104D9000C6F8011C58460AF0ABF8059983461D98E1
:104DA0000AF0BDF8011C58460AF0A2F8011C504652
:104DB0000AF09EF84946A06010980AF0B0F80499ED
:104DC000824617980AF0ABF8011C50460AF090F89A
:104DD000391C824609980AF0A2F8011C50460AF0D4
:104DE00087F8311C824625980AF099F8291C8346D9
:104DF0002C980AF094F8011C58460AF079F80599A5
:104E000083461E980AF08BF8011C58460AF070F889
:104E1000011C50460AF06CF84946E06011980AF00F
:104E20007EF80499824618980AF079F8011C5046D9
:104E30000AF05EF8391C82460A980AF070F8011CE4
:104E400050460AF055F8311C824626980AF067F859
:104E5000291C83462D980AF062F8011C58460AF076
:104E600047F8059983461F980AF059F8011C5846DF
:104E70000AF03EF8011C50460AF03AF84946206113
:104E800012980AF04CF80499824619980AF047F8EB
:104E9000011C50460AF02CF8391C82460B980AF087
:104EA0003EF8011C50460AF023F8311C8246279830
:104EB0000AF035F8291C83462E980AF030F8011CB8
:104EC00058460AF015F80599834620980AF027F805
:104ED000011C58460AF00CF8011C50460AF008F86C
:104EE0004946606113980AF01AF8049981461A98A5
:104EF0000AF015F8011C484609F0FAFF391C8146F2
:104F00000C980AF00CF8011C484609F0F1FF311C1E
:104F1000071C28980AF003F8291C061C2F9809F092
:104F2000FEFF011C301C09F0E3FF0599051C2198C8
:104F300009F0F5FF011C281C09F0DAFF011C381CE0
:104F400009F0D6FF18239C46FFABA06114331C3434
:104F5000E044A34200D08BE6309BA2AD99463C933F
:104F6000C4234C46C8464B44089307944246D26833
:104F700043464146914642469E694C68096892689C
:104F80005F691B690491301CFD990693059209F035
:104F9000C6FFF6998246381C09F0C1FF011C504635
:104FA00009F0A6FFEF998246069809F0B8FFE89944
:104FB0008346484609F0B3FF011C584609F098FFA4
:104FC000011C504609F094FFE1998246059809F0CA
:104FD000A6FFDA998346201C09F0A1FF011C584660
:104FE00009F086FFD3998346049809F098FF011CC5
:104FF000584609F07DFF011C504609F079FF011C5D
:10500000286809F072FF2860FE99301C09F087FFBC
:10501000F7998246381C09F082FF011C504609F0BE
:1050200067FFF0998246069809F079FFE99983466F
:10503000484609F074FF011C584609F059FF011C4D
:10504000504609F055FFE2998246059809F067FF3E
:10505000DB998346201C09F062FF011C584609F0C9
:1050600047FFD4998346049809F059FF011C58461C
:1050700009F03EFF011C504609F03AFF011C686828
:1050800009F033FFFF996860301C09F048FFF89978
:105090008246381C09F043FF011C504609F028FFE6
:1050A000F1998246069809F03AFFEA998346484604
:1050B00009F035FF011C584609F01AFF011C504643
:1050C00009F016FFE3998246059809F028FFDC995C
:1050D0008346201C09F023FF011C584609F008FFF5
:1050E000D5998346049809F01AFF011C584609F027
:1050F000FFFE011C504609F0FBFE011CA86809F0E8
:10510000F4FEFFAB5968A860301C043309F007FFB8
:10511000F9998246381C09F002FF011C504609F03B
:10512000E7FEF2998246069809F0F9FEEB9983466C
:10513000484609F0F4FE011C584609F0D9FE011C4E
:10514000504609F0D5FEE4998246059809F0E7FE3D
:10515000DD998346201C09F0E2FE011C584609F047
:10516000C7FED6998346049809F0D9FE011C58461B
:1051700009F0BEFE011C504609F0BAFE011CE868A9
:1051800009F0B3FEFFAB9968E860301C083309F002
:10519000C6FEFA998246381C09F0C1FE011C504631
:1051A00009F0A6FEF3998246069809F0B8FEEC993C
:1051B0008346484609F0B3FE011C584609F098FEA4
:1051C000011C504609F094FEE5998246059809F0C5
:1051D000A6FEDE998346201C09F0A1FE011C58465C
:1051E00009F086FED7998346049809F098FE011CC1
:1051F000584609F07DFE011C504609F079FE011C5D
:10520000286909F072FEFFABD9682861301C0C33A5
:1052100009F085FEFB998246381C09F080FE011CCE
:10522000504609F065FEF4998246069809F077FE2B
:10523000ED998346484609F072FE011C584609F074
:1052400057FE011C504609F053FEE6998246059828
:1052500009F065FEDF998346201C09F060FE011C01
:10526000584609F045FED8998346049809F057FE40
:10527000011C584609F03CFE011C504609F038FE5E
:10528000011C686909F031FEEE996861484609F031
:1052900046FEF5998146069809F041FE011C4846F4
:1052A00009F026FEFC998146381C09F038FEFFAB58
:1052B0001969071C301C103309F031FE011C381C21
:1052C00009F016FE011C484609F012FEE099061C82
:1052D000201C09F024FEE799041C059809F01FFE24
:1052E000011C201C09F004FED999041C049809F043
:1052F00016FE011C201C09F0FBFD011C301C09F0EE
:10530000F7FD011CA86909F0F0FD1C239C46089BD1
:10531000E044A8611C35984500D027E6079BA29A77
:1053200099461A60A39A5A60A49A9A60A59ADA607C
:10533000A69A1A61A79A5A61A89A9A61A99ADA61FB
:10534000AA9A1A62AB9A5A62AC9A9A62AD9ADA62D7
:10535000AE9A1A63AF9A5A63B09A9A63B19ADA63B3
:10536000B29A1A64B39A5A64B49A9A64B59ADA648F
:10537000B69A1A65B79A5A65B89A9A65B99ADA656B
:10538000BA9A1A66BB9A5A66BC9A9A66BD9ADA6647
:10539000BE9A1A67BF9A5A67C09A9A67C19ADA6723
:1053A0004A468023C299D150C3990433D150C4993D
:1053B0000433D150C5990433D150C6990433D15028
:1053C000C7990433D150C8990433D150C9990433D3
:1053D000D150CA990433D150CB990433D150CC99D0
:1053E0000433D150CD990433D150CE990433D150E8
:1053F000CF990433D150D0990433D150D19904338B
:10540000D150D2990433D1503AAA94464F4BA2AA14
:1054100063441B6813CB13C24D4BD3AC63441B686E
:1054200007CB07C43A9B3B9D00934A4B280063443B
:10543000A2A91B68D3AAFDF789F82B00D3AA23CB16
:1054400023C213CB13C23AA91B688C4613603EAA31
:1054500011003E4B63441B6831CB31C13C4BA2A9C8
:1054600063441B6831CB31C13A4BD3A963441B68F9
:1054700071A80093A2ABFDF7CFFAD3AB07931C0042
:10548000719B0993789B10937F9B1793869B1E9328
:105490008D9B2593949B2C939B9B3393729B0A9398
:1054A000799B1193809B1893879B1F938E9B2693C8
:1054B000959B2D939C9B3493739B0B937A9B129398
:1054C000819B1993889B20938F9B2793969B2E9368
:1054D0009D9B3593749B0C937B9B1393829B1A9398
:1054E000899B2193909B2893979B2F939E9B369308
:1054F000759B0D937C9B1493839B1B938A9B229398
:10550000919B2993989B30939F9B3793769B0E9307
:105510007D9B1593849B1C938B9B2393929B2A9337
:10552000999B3193A09B3893779B0F937E9B169307
:10553000859B1D938C9B2493939B2B939A9B3293D7
:10554000A19B3C9D39934B463C9305E02808000005
:10555000380800003C080000E868AE698146A96888
:1055600028692B686A6880460691301C3399049339
:10557000059209F0D4FC6F6982462C99381C09F019
:10558000CEFC011C504609F0B3FC259982464046EA
:1055900009F0C5FC1E998346484609F0C0FC011C71
:1055A000584609F0A5FC011C504609F0A1FC1799CA
:1055B0008246069809F0B3FC10998346059809F0D5
:1055C000AEFC011C584609F093FC099983460498E7
:1055D00009F0A5FC011C584609F08AFC011C504644
:1055E00009F086FC34992060301C09F098FC2D9954
:1055F0008246381C09F093FC011C504609F078FCE7
:1056000026998246404609F08AFC1F9983464846FF
:1056100009F085FC011C584609F06AFC011C504643
:1056200009F066FC18998246069809F078FC1199F1
:105630008346059809F073FC011C584609F058FC94
:105640000A998346049809F06AFC011C584609F03F
:105650004FFC011C504609F04BFC35996060301C32
:1056600009F05DFC2E998246381C09F058FC011C9B
:10567000504609F03DFC27998246404609F04FFC10
:1056800020998346484609F04AFC011C584609F017
:105690002FFC011C504609F02BFC199982460698F4
:1056A00009F03DFC12998346059809F038FC011C6D
:1056B000584609F01DFC0B998346049809F02FFC0D
:1056C000011C584609F014FC011C504609F010FC5E
:1056D0003699A060301C09F022FC2F998246381CB4
:1056E00009F01DFC011C504609F002FC2899824675
:1056F000404609F014FC21998346484609F00FFC06
:10570000011C584609F0F4FB011C504609F0F0FB5F
:105710001A998246069809F002FC13998346059867
:1057200009F0FDFB011C584609F0E2FB0C99834689
:10573000049809F0F4FB011C584609F0D9FB011C40
:10574000504609F0D5FB3799E060301C09F0E7FBC3
:1057500030998246381C09F0E2FB011C504609F0E2
:10576000C7FB29998246404609F0D9FB2299834616
:10577000484609F0D4FB011C584609F0B9FB011C4E
:10578000504609F0B5FB1B998246069809F0C7FB05
:1057900014998346059809F0C2FB011C584609F08C
:1057A000A7FB0D998346049809F0B9FB011C5846E4
:1057B00009F09EFB011C504609F09AFB38992061C4
:1057C000301C09F0ACFB31998246381C09F0A7FB6C
:1057D000011C504609F08CFB2A998246404609F08C
:1057E0009EFB23998346484609F099FB011C5846C5
:1057F00009F07EFB011C504609F07AFB1C99824699
:10580000069809F08CFB15998346059809F087FBEB
:10581000011C584609F06CFB0E998346049809F068
:105820007EFB011C584609F063FB011C504609F041
:105830005FFB49466061249809F071FB414681464F
:105840002B9809F06CFB011C484609F051FB391CF0
:105850008046329809F063FB311C071C399809F027
:105860005EFB011C381C09F043FB011C404609F09B
:105870003FFB0599061C169809F051FB0699071C79
:105880001D9809F04CFB011C381C09F031FB0499F0
:10589000071C0F9809F043FB011C381C09F028FB7A
:1058A000011C301C09F024FB089B1C35A0611C3432
:1058B0009D4200D050E63C9BA2AC9946F6AB0693C5
:1058C000DAAB08934B463C943D93079B586D1A689E
:1058D0008146996B186F0492069A80460591484656
:1058E0001E99DD691768D66909F019FB259982466A
:1058F000404609F014FB011C504609F0F9FA2C99B6
:105900008246381C09F00BFB33998346301C09F0A2
:1059100006FB011C584609F0EBFA011C504609F041
:10592000E7FA10998246281C09F0F9FA179983467C
:10593000059809F0F4FA011C584609F0D9FA0999BA
:105940008346049809F0EBFA011C584609F0D0FA96
:10595000011C504609F0CCFA20601F99484609F016
:10596000DEFA26998246404609F0D9FA011C5046D3
:1059700009F0BEFA2D998246381C09F0D0FA349904
:105980008346301C09F0CBFA011C584609F0B0FAE6
:10599000011C504609F0ACFA11998246281C09F006
:1059A000BEFA18998346059809F0B9FA011C5846C1
:1059B00009F09EFA0A998346049809F0B0FA011C8E
:1059C000584609F095FA011C504609F091FA2099C1
:1059D0006060484609F0A3FA27998246404609F0DC
:1059E0009EFA011C504609F083FA2E998246381C13
:1059F00009F095FA35998346301C09F090FA011C9C
:105A0000584609F075FA011C504609F071FA1299CE
:105A10008246281C09F083FA19998346059809F0F3
:105A20007EFA011C584609F063FA0B9983460498E4
:105A300009F075FA011C584609F05AFA011C504643
:105A400009F056FA2199A060484609F068FA2899A9
:105A50008246404609F063FA011C504609F048FAB4
:105A60002F998246381C09F05AFA36998346301C21
:105A700009F055FA011C584609F03AFA011C504643
:105A800009F036FA13998246281C09F048FA1A9947
:105A90008346059809F043FA011C584609F028FA94
:105AA0000C998346049809F03AFA011C584609F00B
:105AB0001FFA011C504609F01BFA2299E060484683
:105AC00009F02DFA29998246404609F028FA011C6E
:105AD000504609F00DFA30998246381C09F01FFA39
